{
  "_format": "hh-sol-artifact-1",
  "contractName": "GPURegistration",
  "sourceName": "contracts/GPURegistration.sol",
  "abi": [
    {
      "anonymous": false,
      "inputs": [
        {
          "indexed": false,
          "internalType": "string",
          "name": "uniqueIdentifier",
          "type": "string"
        },
        {
          "indexed": false,
          "internalType": "address",
          "name": "owner",
          "type": "address"
        }
      ],
      "name": "GPURegistered",
      "type": "event"
    },
    {
      "anonymous": false,
      "inputs": [
        {
          "indexed": false,
          "internalType": "string",
          "name": "uniqueIdentifier",
          "type": "string"
        },
        {
          "indexed": false,
          "internalType": "address",
          "name": "from",
          "type": "address"
        },
        {
          "indexed": false,
          "internalType": "address",
          "name": "to",
          "type": "address"
        }
      ],
      "name": "GPUTransferred",
      "type": "event"
    },
    {
      "anonymous": false,
      "inputs": [
        {
          "indexed": true,
          "internalType": "address",
          "name": "previousOwner",
          "type": "address"
        },
        {
          "indexed": true,
          "internalType": "address",
          "name": "newOwner",
          "type": "address"
        }
      ],
      "name": "OwnershipTransferred",
      "type": "event"
    },
    {
      "anonymous": false,
      "inputs": [
        {
          "indexed": false,
          "internalType": "address",
          "name": "account",
          "type": "address"
        }
      ],
      "name": "Paused",
      "type": "event"
    },
    {
      "anonymous": false,
      "inputs": [
        {
          "indexed": false,
          "internalType": "address",
          "name": "account",
          "type": "address"
        }
      ],
      "name": "Unpaused",
      "type": "event"
    },
    {
      "inputs": [
        {
          "internalType": "string",
          "name": "",
          "type": "string"
        }
      ],
      "name": "gpus",
      "outputs": [
        {
          "internalType": "string",
          "name": "uniqueIdentifier",
          "type": "string"
        },
        {
          "internalType": "address",
          "name": "owner",
          "type": "address"
        },
        {
          "internalType": "bool",
          "name": "isRegistered",
          "type": "bool"
        }
      ],
      "stateMutability": "view",
      "type": "function"
    },
    {
      "inputs": [],
      "name": "owner",
      "outputs": [
        {
          "internalType": "address",
          "name": "",
          "type": "address"
        }
      ],
      "stateMutability": "view",
      "type": "function"
    },
    {
      "inputs": [],
      "name": "pause",
      "outputs": [],
      "stateMutability": "nonpayable",
      "type": "function"
    },
    {
      "inputs": [],
      "name": "paused",
      "outputs": [
        {
          "internalType": "bool",
          "name": "",
          "type": "bool"
        }
      ],
      "stateMutability": "view",
      "type": "function"
    },
    {
      "inputs": [
        {
          "internalType": "string",
          "name": "_uniqueIdentifier",
          "type": "string"
        }
      ],
      "name": "registerGPU",
      "outputs": [],
      "stateMutability": "nonpayable",
      "type": "function"
    },
    {
      "inputs": [],
      "name": "renounceOwnership",
      "outputs": [],
      "stateMutability": "nonpayable",
      "type": "function"
    },
    {
      "inputs": [
        {
          "internalType": "string",
          "name": "_uniqueIdentifier",
          "type": "string"
        },
        {
          "internalType": "address",
          "name": "_newOwner",
          "type": "address"
        }
      ],
      "name": "transferGPU",
      "outputs": [],
      "stateMutability": "nonpayable",
      "type": "function"
    },
    {
      "inputs": [
        {
          "internalType": "address",
          "name": "newOwner",
          "type": "address"
        }
      ],
      "name": "transferOwnership",
      "outputs": [],
      "stateMutability": "nonpayable",
      "type": "function"
    },
    {
      "inputs": [],
      "name": "unpause",
      "outputs": [],
      "stateMutability": "nonpayable",
      "type": "function"
    },
    {
      "inputs": [
        {
          "internalType": "string",
          "name": "_uniqueIdentifier",
          "type": "string"
        }
      ],
      "name": "verifyGPU",
      "outputs": [
        {
          "internalType": "bool",
          "name": "",
          "type": "bool"
        },
        {
          "internalType": "address",
          "name": "",
          "type": "address"
        }
      ],
      "stateMutability": "view",
      "type": "function"
    }
  ],
  "bytecode": "0x608060405234801561001057600080fd5b5061002d61002261004c60201b60201c565b61005460201b60201c565b60008060146101000a81548160ff021916908315150217905550610118565b600033905090565b60008060009054906101000a900473ffffffffffffffffffffffffffffffffffffffff169050816000806101000a81548173ffffffffffffffffffffffffffffffffffffffff021916908373ffffffffffffffffffffffffffffffffffffffff1602179055508173ffffffffffffffffffffffffffffffffffffffff168173ffffffffffffffffffffffffffffffffffffffff167f8be0079c531659141344cd1fd0a4f28419497f9722a3daafe3b4186f6b6457e060405160405180910390a35050565b6111af806101276000396000f3fe608060405234801561001057600080fd5b506004361061009e5760003560e01c80638456cb59116100665780638456cb591461012257806388e26b201461012c5780638da5cb5b1461015e578063e71a36411461017c578063f2fde38b146101985761009e565b8063276cd89d146100a35780633f4ba83a146100bf5780635c975abb146100c9578063601cf7b6146100e7578063715018a614610118575b600080fd5b6100bd60048036038101906100b89190610aee565b6101b4565b005b6100c7610340565b005b6100d1610352565b6040516100de9190610e09565b60405180910390f35b61010160048036038101906100fc9190610aee565b610368565b60405161010f929190610e24565b60405180910390f35b6101206103e5565b005b61012a6103f9565b005b61014660048036038101906101419190610aee565b61040b565b60405161015593929190610ebb565b60405180910390f35b610166610500565b6040516101739190610dee565b60405180910390f35b61019660048036038101906101919190610b2f565b610529565b005b6101b260048036038101906101ad9190610ac5565b61067f565b005b6101bc610703565b6001816040516101cc9190610dd7565b908152602001604051809103902060010160149054906101000a900460ff161561022b576040517f08c379a000000000000000000000000000000000000000000000000000000000815260040161022290610f99565b60405180910390fd5b60405180606001604052808281526020013373ffffffffffffffffffffffffffffffffffffffff1681526020016001151581525060018260405161026f9190610dd7565b908152602001604051809103902060008201518160000190805190602001906102999291906109a5565b5060208201518160010160006101000a81548173ffffffffffffffffffffffffffffffffffffffff021916908373ffffffffffffffffffffffffffffffffffffffff16021790555060408201518160010160146101000a81548160ff0219169083151502179055509050507f2a3d1ecf2145022d783e1b64d9ced56a663fdc440b48d224c987d65097d5d46b8133604051610335929190610e4d565b60405180910390a150565b61034861074d565b6103506107cb565b565b60008060149054906101000a900460ff16905090565b60008060018360405161037b9190610dd7565b908152602001604051809103902060010160149054906101000a900460ff166001846040516103aa9190610dd7565b908152602001604051809103902060010160009054906101000a900473ffffffffffffffffffffffffffffffffffffffff1691509150915091565b6103ed61074d565b6103f7600061082d565b565b61040161074d565b6104096108f1565b565b600181805160208101820180518482526020830160208501208183528095505050505050600091509050806000018054610444906110c1565b80601f0160208091040260200160405190810160405280929190818152602001828054610470906110c1565b80156104bd5780601f10610492576101008083540402835291602001916104bd565b820191906000526020600020905b8154815290600101906020018083116104a057829003601f168201915b5050505050908060010160009054906101000a900473ffffffffffffffffffffffffffffffffffffffff16908060010160149054906101000a900460ff16905083565b60008060009054906101000a900473ffffffffffffffffffffffffffffffffffffffff16905090565b610531610703565b3373ffffffffffffffffffffffffffffffffffffffff166001836040516105589190610dd7565b908152602001604051809103902060010160009054906101000a900473ffffffffffffffffffffffffffffffffffffffff1673ffffffffffffffffffffffffffffffffffffffff16146105e0576040517f08c379a00000000000000000000000000000000000000000000000000000000081526004016105d790610f79565b60405180910390fd5b806001836040516105f19190610dd7565b908152602001604051809103902060010160006101000a81548173ffffffffffffffffffffffffffffffffffffffff021916908373ffffffffffffffffffffffffffffffffffffffff1602179055507fdd5f76176e04227ae82aa86ea74378ed4c5f60afb915676d6615246f8568afcd82338360405161067393929190610e7d565b60405180910390a15050565b61068761074d565b600073ffffffffffffffffffffffffffffffffffffffff168173ffffffffffffffffffffffffffffffffffffffff1614156106f7576040517f08c379a00000000000000000000000000000000000000000000000000000000081526004016106ee90610f19565b60405180910390fd5b6107008161082d565b50565b61070b610352565b1561074b576040517f08c379a000000000000000000000000000000000000000000000000000000000815260040161074290610f39565b60405180910390fd5b565b610755610954565b73ffffffffffffffffffffffffffffffffffffffff16610773610500565b73ffffffffffffffffffffffffffffffffffffffff16146107c9576040517f08c379a00000000000000000000000000000000000000000000000000000000081526004016107c090610f59565b60405180910390fd5b565b6107d361095c565b60008060146101000a81548160ff0219169083151502179055507f5db9ee0a495bf2e6ff9c91a7834c1ba4fdd244a5e8aa4e537bd38aeae4b073aa610816610954565b6040516108239190610dee565b60405180910390a1565b60008060009054906101000a900473ffffffffffffffffffffffffffffffffffffffff169050816000806101000a81548173ffffffffffffffffffffffffffffffffffffffff021916908373ffffffffffffffffffffffffffffffffffffffff1602179055508173ffffffffffffffffffffffffffffffffffffffff168173ffffffffffffffffffffffffffffffffffffffff167f8be0079c531659141344cd1fd0a4f28419497f9722a3daafe3b4186f6b6457e060405160405180910390a35050565b6108f9610703565b6001600060146101000a81548160ff0219169083151502179055507f62e78cea01bee320cd4e420270b5ea74000d11b0c9f74754ebdbfc544b05a25861093d610954565b60405161094a9190610dee565b60405180910390a1565b600033905090565b610964610352565b6109a3576040517f08c379a000000000000000000000000000000000000000000000000000000000815260040161099a90610ef9565b60405180910390fd5b565b8280546109b1906110c1565b90600052602060002090601f0160209004810192826109d35760008555610a1a565b82601f106109ec57805160ff1916838001178555610a1a565b82800160010185558215610a1a579182015b82811115610a195782518255916020019190600101906109fe565b5b509050610a279190610a2b565b5090565b5b80821115610a44576000816000905550600101610a2c565b5090565b6000610a5b610a5684610fea565b610fb9565b905082815260208101848484011115610a7357600080fd5b610a7e84828561107f565b509392505050565b600081359050610a9581611162565b92915050565b600082601f830112610aac57600080fd5b8135610abc848260208601610a48565b91505092915050565b600060208284031215610ad757600080fd5b6000610ae584828501610a86565b91505092915050565b600060208284031215610b0057600080fd5b600082013567ffffffffffffffff811115610b1a57600080fd5b610b2684828501610a9b565b91505092915050565b60008060408385031215610b4257600080fd5b600083013567ffffffffffffffff811115610b5c57600080fd5b610b6885828601610a9b565b9250506020610b7985828601610a86565b9150509250929050565b610b8c81611041565b82525050565b610b9b81611053565b82525050565b6000610bac8261101a565b610bb68185611025565b9350610bc681856020860161108e565b610bcf81611151565b840191505092915050565b6000610be58261101a565b610bef8185611036565b9350610bff81856020860161108e565b80840191505092915050565b6000610c18601483611025565b91507f5061757361626c653a206e6f74207061757365640000000000000000000000006000830152602082019050919050565b6000610c58602683611025565b91507f4f776e61626c653a206e6577206f776e657220697320746865207a65726f206160008301527f64647265737300000000000000000000000000000000000000000000000000006020830152604082019050919050565b6000610cbe601083611025565b91507f5061757361626c653a20706175736564000000000000000000000000000000006000830152602082019050919050565b6000610cfe602083611025565b91507f4f776e61626c653a2063616c6c6572206973206e6f7420746865206f776e65726000830152602082019050919050565b6000610d3e602c83611025565b91507f4f6e6c79207468652063757272656e74206f776e65722063616e207472616e7360008301527f66657220746865204750552e00000000000000000000000000000000000000006020830152604082019050919050565b6000610da4601f83611025565b91507f546869732047505520697320616c726561647920726567697374657265642e006000830152602082019050919050565b6000610de38284610bda565b915081905092915050565b6000602082019050610e036000830184610b83565b92915050565b6000602082019050610e1e6000830184610b92565b92915050565b6000604082019050610e396000830185610b92565b610e466020830184610b83565b9392505050565b60006040820190508181036000830152610e678185610ba1565b9050610e766020830184610b83565b9392505050565b60006060820190508181036000830152610e978186610ba1565b9050610ea66020830185610b83565b610eb36040830184610b83565b949350505050565b60006060820190508181036000830152610ed58186610ba1565b9050610ee46020830185610b83565b610ef16040830184610b92565b949350505050565b60006020820190508181036000830152610f1281610c0b565b9050919050565b60006020820190508181036000830152610f3281610c4b565b9050919050565b60006020820190508181036000830152610f5281610cb1565b9050919050565b60006020820190508181036000830152610f7281610cf1565b9050919050565b60006020820190508181036000830152610f9281610d31565b9050919050565b60006020820190508181036000830152610fb281610d97565b9050919050565b6000604051905081810181811067ffffffffffffffff82111715610fe057610fdf611122565b5b8060405250919050565b600067ffffffffffffffff82111561100557611004611122565b5b601f19601f8301169050602081019050919050565b600081519050919050565b600082825260208201905092915050565b600081905092915050565b600061104c8261105f565b9050919050565b60008115159050919050565b600073ffffffffffffffffffffffffffffffffffffffff82169050919050565b82818337600083830152505050565b60005b838110156110ac578082015181840152602081019050611091565b838111156110bb576000848401525b50505050565b600060028204905060018216806110d957607f821691505b602082108114156110ed576110ec6110f3565b5b50919050565b7f4e487b7100000000000000000000000000000000000000000000000000000000600052602260045260246000fd5b7f4e487b7100000000000000000000000000000000000000000000000000000000600052604160045260246000fd5b6000601f19601f8301169050919050565b61116b81611041565b811461117657600080fd5b5056fea264697066735822122035a341bc3c2876161d133311d0dddffdd366eafd75d291dd380c7594a6d4227f64736f6c63430008000033",
  "linkReferences": {},
  "deployedLinkReferences": {}
}