{
  "_format": "hh-sol-artifact-1",
  "contractName": "GPURegistration",
  "sourceName": "contracts/GPURegistration.sol",
  "abi": [
    {
      "anonymous": false,
      "inputs": [
        {
          "indexed": false,
          "internalType": "string",
          "name": "uniqueIdentifier",
          "type": "string"
        },
        {
          "indexed": false,
          "internalType": "address",
          "name": "owner",
          "type": "address"
        }
      ],
      "name": "GPURegistered",
      "type": "event"
    },
    {
      "anonymous": false,
      "inputs": [
        {
          "indexed": false,
          "internalType": "string",
          "name": "uniqueIdentifier",
          "type": "string"
        },
        {
          "indexed": false,
          "internalType": "address",
          "name": "from",
          "type": "address"
        },
        {
          "indexed": false,
          "internalType": "address",
          "name": "to",
          "type": "address"
        }
      ],
      "name": "GPUTransferred",
      "type": "event"
    },
    {
      "anonymous": false,
      "inputs": [
        {
          "indexed": true,
          "internalType": "address",
          "name": "previousOwner",
          "type": "address"
        },
        {
          "indexed": true,
          "internalType": "address",
          "name": "newOwner",
          "type": "address"
        }
      ],
      "name": "OwnershipTransferred",
      "type": "event"
    },
    {
      "anonymous": false,
      "inputs": [
        {
          "indexed": false,
          "internalType": "address",
          "name": "account",
          "type": "address"
        }
      ],
      "name": "Paused",
      "type": "event"
    },
    {
      "anonymous": false,
      "inputs": [
        {
          "indexed": false,
          "internalType": "address",
          "name": "account",
          "type": "address"
        }
      ],
      "name": "Unpaused",
      "type": "event"
    },
    {
      "inputs": [
        {
          "internalType": "string",
          "name": "",
          "type": "string"
        }
      ],
      "name": "gpus",
      "outputs": [
        {
          "internalType": "string",
          "name": "uniqueIdentifier",
          "type": "string"
        },
        {
          "internalType": "address",
          "name": "owner",
          "type": "address"
        },
        {
          "internalType": "bool",
          "name": "isRegistered",
          "type": "bool"
        }
      ],
      "stateMutability": "view",
      "type": "function"
    },
    {
      "inputs": [],
      "name": "owner",
      "outputs": [
        {
          "internalType": "address",
          "name": "",
          "type": "address"
        }
      ],
      "stateMutability": "view",
      "type": "function"
    },
    {
      "inputs": [],
      "name": "pause",
      "outputs": [],
      "stateMutability": "nonpayable",
      "type": "function"
    },
    {
      "inputs": [],
      "name": "paused",
      "outputs": [
        {
          "internalType": "bool",
          "name": "",
          "type": "bool"
        }
      ],
      "stateMutability": "view",
      "type": "function"
    },
    {
      "inputs": [
        {
          "internalType": "string",
          "name": "_uniqueIdentifier",
          "type": "string"
        },
        {
          "internalType": "bytes32",
          "name": "signature",
          "type": "bytes32"
        }
      ],
      "name": "registerGPU",
      "outputs": [],
      "stateMutability": "nonpayable",
      "type": "function"
    },
    {
      "inputs": [],
      "name": "renounceOwnership",
      "outputs": [],
      "stateMutability": "nonpayable",
      "type": "function"
    },
    {
      "inputs": [
        {
          "internalType": "string",
          "name": "_uniqueIdentifier",
          "type": "string"
        },
        {
          "internalType": "address",
          "name": "_newOwner",
          "type": "address"
        }
      ],
      "name": "transferGPU",
      "outputs": [],
      "stateMutability": "nonpayable",
      "type": "function"
    },
    {
      "inputs": [
        {
          "internalType": "address",
          "name": "newOwner",
          "type": "address"
        }
      ],
      "name": "transferOwnership",
      "outputs": [],
      "stateMutability": "nonpayable",
      "type": "function"
    },
    {
      "inputs": [],
      "name": "unpause",
      "outputs": [],
      "stateMutability": "nonpayable",
      "type": "function"
    },
    {
      "inputs": [
        {
          "internalType": "string",
          "name": "_uniqueIdentifier",
          "type": "string"
        }
      ],
      "name": "verifyGPU",
      "outputs": [
        {
          "internalType": "bool",
          "name": "",
          "type": "bool"
        },
        {
          "internalType": "address",
          "name": "",
          "type": "address"
        }
      ],
      "stateMutability": "view",
      "type": "function"
    }
  ],
  "bytecode": "0x608060405234801561001057600080fd5b5061002d61002261004c60201b60201c565b61005460201b60201c565b60008060146101000a81548160ff021916908315150217905550610118565b600033905090565b60008060009054906101000a900473ffffffffffffffffffffffffffffffffffffffff169050816000806101000a81548173ffffffffffffffffffffffffffffffffffffffff021916908373ffffffffffffffffffffffffffffffffffffffff1602179055508173ffffffffffffffffffffffffffffffffffffffff168173ffffffffffffffffffffffffffffffffffffffff167f8be0079c531659141344cd1fd0a4f28419497f9722a3daafe3b4186f6b6457e060405160405180910390a35050565b6113a8806101276000396000f3fe608060405234801561001057600080fd5b506004361061009e5760003560e01c80638456cb59116100665780638456cb591461012257806388e26b201461012c5780638da5cb5b1461015e578063e71a36411461017c578063f2fde38b146101985761009e565b80631c3d06ef146100a35780633f4ba83a146100bf5780635c975abb146100c9578063601cf7b6146100e7578063715018a614610118575b600080fd5b6100bd60048036038101906100b89190610c07565b6101b4565b005b6100c76103af565b005b6100d16103c1565b6040516100de9190610e0a565b60405180910390f35b61010160048036038101906100fc9190610b72565b6103d7565b60405161010f929190610e25565b60405180910390f35b610120610454565b005b61012a610468565b005b61014660048036038101906101419190610b72565b61047a565b60405161015593929190610ebc565b60405180910390f35b61016661056f565b6040516101739190610def565b60405180910390f35b61019660048036038101906101919190610bb3565b610598565b005b6101b260048036038101906101ad9190610b49565b6106ee565b005b6101bc610772565b6001826040516101cc9190610dd8565b908152602001604051809103902060010160149054906101000a900460ff161561022b576040517f08c379a000000000000000000000000000000000000000000000000000000000815260040161022290610fba565b60405180910390fd5b60008260405160200161023e9190610dd8565b604051602081830303815290604052805190602001209050808214610298576040517f08c379a000000000000000000000000000000000000000000000000000000000815260040161028f90610f3a565b60405180910390fd5b60405180606001604052808481526020013373ffffffffffffffffffffffffffffffffffffffff168152602001600115158152506001846040516102dc9190610dd8565b90815260200160405180910390206000820151816000019080519060200190610306929190610a14565b5060208201518160010160006101000a81548173ffffffffffffffffffffffffffffffffffffffff021916908373ffffffffffffffffffffffffffffffffffffffff16021790555060408201518160010160146101000a81548160ff0219169083151502179055509050507f2a3d1ecf2145022d783e1b64d9ced56a663fdc440b48d224c987d65097d5d46b83336040516103a2929190610e4e565b60405180910390a1505050565b6103b76107bc565b6103bf61083a565b565b60008060149054906101000a900460ff16905090565b6000806001836040516103ea9190610dd8565b908152602001604051809103902060010160149054906101000a900460ff166001846040516104199190610dd8565b908152602001604051809103902060010160009054906101000a900473ffffffffffffffffffffffffffffffffffffffff1691509150915091565b61045c6107bc565b610466600061089c565b565b6104706107bc565b610478610960565b565b6001818051602081018201805184825260208301602085012081835280955050505050506000915090508060000180546104b3906110e1565b80601f01602080910402602001604051908101604052809291908181526020018280546104df906110e1565b801561052c5780601f106105015761010080835404028352916020019161052c565b820191906000526020600020905b81548152906001019060200180831161050f57829003601f168201915b5050505050908060010160009054906101000a900473ffffffffffffffffffffffffffffffffffffffff16908060010160149054906101000a900460ff16905083565b60008060009054906101000a900473ffffffffffffffffffffffffffffffffffffffff16905090565b6105a0610772565b3373ffffffffffffffffffffffffffffffffffffffff166001836040516105c79190610dd8565b908152602001604051809103902060010160009054906101000a900473ffffffffffffffffffffffffffffffffffffffff1673ffffffffffffffffffffffffffffffffffffffff161461064f576040517f08c379a000000000000000000000000000000000000000000000000000000000815260040161064690610f9a565b60405180910390fd5b806001836040516106609190610dd8565b908152602001604051809103902060010160006101000a81548173ffffffffffffffffffffffffffffffffffffffff021916908373ffffffffffffffffffffffffffffffffffffffff1602179055507fdd5f76176e04227ae82aa86ea74378ed4c5f60afb915676d6615246f8568afcd8233836040516106e293929190610e7e565b60405180910390a15050565b6106f66107bc565b600073ffffffffffffffffffffffffffffffffffffffff168173ffffffffffffffffffffffffffffffffffffffff161415610766576040517f08c379a000000000000000000000000000000000000000000000000000000000815260040161075d90610f1a565b60405180910390fd5b61076f8161089c565b50565b61077a6103c1565b156107ba576040517f08c379a00000000000000000000000000000000000000000000000000000000081526004016107b190610f5a565b60405180910390fd5b565b6107c46109c3565b73ffffffffffffffffffffffffffffffffffffffff166107e261056f565b73ffffffffffffffffffffffffffffffffffffffff1614610838576040517f08c379a000000000000000000000000000000000000000000000000000000000815260040161082f90610f7a565b60405180910390fd5b565b6108426109cb565b60008060146101000a81548160ff0219169083151502179055507f5db9ee0a495bf2e6ff9c91a7834c1ba4fdd244a5e8aa4e537bd38aeae4b073aa6108856109c3565b6040516108929190610def565b60405180910390a1565b60008060009054906101000a900473ffffffffffffffffffffffffffffffffffffffff169050816000806101000a81548173ffffffffffffffffffffffffffffffffffffffff021916908373ffffffffffffffffffffffffffffffffffffffff1602179055508173ffffffffffffffffffffffffffffffffffffffff168173ffffffffffffffffffffffffffffffffffffffff167f8be0079c531659141344cd1fd0a4f28419497f9722a3daafe3b4186f6b6457e060405160405180910390a35050565b610968610772565b6001600060146101000a81548160ff0219169083151502179055507f62e78cea01bee320cd4e420270b5ea74000d11b0c9f74754ebdbfc544b05a2586109ac6109c3565b6040516109b99190610def565b60405180910390a1565b600033905090565b6109d36103c1565b610a12576040517f08c379a0000000000000000000000000000000000000000000000000000000008152600401610a0990610efa565b60405180910390fd5b565b828054610a20906110e1565b90600052602060002090601f016020900481019282610a425760008555610a89565b82601f10610a5b57805160ff1916838001178555610a89565b82800160010185558215610a89579182015b82811115610a88578251825591602001919060010190610a6d565b5b509050610a969190610a9a565b5090565b5b80821115610ab3576000816000905550600101610a9b565b5090565b6000610aca610ac584610fff565b610fda565b905082815260208101848484011115610ae257600080fd5b610aed84828561109f565b509392505050565b600081359050610b0481611344565b92915050565b600081359050610b198161135b565b92915050565b600082601f830112610b3057600080fd5b8135610b40848260208601610ab7565b91505092915050565b600060208284031215610b5b57600080fd5b6000610b6984828501610af5565b91505092915050565b600060208284031215610b8457600080fd5b600082013567ffffffffffffffff811115610b9e57600080fd5b610baa84828501610b1f565b91505092915050565b60008060408385031215610bc657600080fd5b600083013567ffffffffffffffff811115610be057600080fd5b610bec85828601610b1f565b9250506020610bfd85828601610af5565b9150509250929050565b60008060408385031215610c1a57600080fd5b600083013567ffffffffffffffff811115610c3457600080fd5b610c4085828601610b1f565b9250506020610c5185828601610b0a565b9150509250929050565b610c6481611057565b82525050565b610c7381611069565b82525050565b6000610c8482611030565b610c8e818561103b565b9350610c9e8185602086016110ae565b610ca7816111a2565b840191505092915050565b6000610cbd82611030565b610cc7818561104c565b9350610cd78185602086016110ae565b80840191505092915050565b6000610cf060148361103b565b9150610cfb826111b3565b602082019050919050565b6000610d1360268361103b565b9150610d1e826111dc565b604082019050919050565b6000610d36602c8361103b565b9150610d418261122b565b604082019050919050565b6000610d5960108361103b565b9150610d648261127a565b602082019050919050565b6000610d7c60208361103b565b9150610d87826112a3565b602082019050919050565b6000610d9f602c8361103b565b9150610daa826112cc565b604082019050919050565b6000610dc2601f8361103b565b9150610dcd8261131b565b602082019050919050565b6000610de48284610cb2565b915081905092915050565b6000602082019050610e046000830184610c5b565b92915050565b6000602082019050610e1f6000830184610c6a565b92915050565b6000604082019050610e3a6000830185610c6a565b610e476020830184610c5b565b9392505050565b60006040820190508181036000830152610e688185610c79565b9050610e776020830184610c5b565b9392505050565b60006060820190508181036000830152610e988186610c79565b9050610ea76020830185610c5b565b610eb46040830184610c5b565b949350505050565b60006060820190508181036000830152610ed68186610c79565b9050610ee56020830185610c5b565b610ef26040830184610c6a565b949350505050565b60006020820190508181036000830152610f1381610ce3565b9050919050565b60006020820190508181036000830152610f3381610d06565b9050919050565b60006020820190508181036000830152610f5381610d29565b9050919050565b60006020820190508181036000830152610f7381610d4c565b9050919050565b60006020820190508181036000830152610f9381610d6f565b9050919050565b60006020820190508181036000830152610fb381610d92565b9050919050565b60006020820190508181036000830152610fd381610db5565b9050919050565b6000610fe4610ff5565b9050610ff08282611113565b919050565b6000604051905090565b600067ffffffffffffffff82111561101a57611019611173565b5b611023826111a2565b9050602081019050919050565b600081519050919050565b600082825260208201905092915050565b600081905092915050565b60006110628261107f565b9050919050565b60008115159050919050565b6000819050919050565b600073ffffffffffffffffffffffffffffffffffffffff82169050919050565b82818337600083830152505050565b60005b838110156110cc5780820151818401526020810190506110b1565b838111156110db576000848401525b50505050565b600060028204905060018216806110f957607f821691505b6020821081141561110d5761110c611144565b5b50919050565b61111c826111a2565b810181811067ffffffffffffffff8211171561113b5761113a611173565b5b80604052505050565b7f4e487b7100000000000000000000000000000000000000000000000000000000600052602260045260246000fd5b7f4e487b7100000000000000000000000000000000000000000000000000000000600052604160045260246000fd5b6000601f19601f8301169050919050565b7f5061757361626c653a206e6f7420706175736564000000000000000000000000600082015250565b7f4f776e61626c653a206e6577206f776e657220697320746865207a65726f206160008201527f6464726573730000000000000000000000000000000000000000000000000000602082015250565b7f5369676e617475726520646f6573206e6f74206d61746368207468652065787060008201527f65637465642076616c75652e0000000000000000000000000000000000000000602082015250565b7f5061757361626c653a2070617573656400000000000000000000000000000000600082015250565b7f4f776e61626c653a2063616c6c6572206973206e6f7420746865206f776e6572600082015250565b7f4f6e6c79207468652063757272656e74206f776e65722063616e207472616e7360008201527f66657220746865204750552e0000000000000000000000000000000000000000602082015250565b7f546869732047505520697320616c726561647920726567697374657265642e00600082015250565b61134d81611057565b811461135857600080fd5b50565b61136481611075565b811461136f57600080fd5b5056fea264697066735822122078dad27d3997df2da077ff526345f25db690fddd319f705b737cdde78be6439264736f6c63430008010033",
  "linkReferences": {},
  "deployedLinkReferences": {}
}